{
  "_format": "hh-sol-artifact-1",
  "contractName": "MyEpicNFT",
  "sourceName": "contracts/MyEpicNFT.sol",
  "abi": [
    {
      "inputs": [
        {
          "internalType": "uint256",
          "name": "TOTAL_MINT_COUNT",
          "type": "uint256"
        }
      ],
      "stateMutability": "nonpayable",
      "type": "constructor"
    },
    {
      "anonymous": false,
      "inputs": [
        {
          "indexed": true,
          "internalType": "address",
          "name": "owner",
          "type": "address"
        },
        {
          "indexed": true,
          "internalType": "address",
          "name": "approved",
          "type": "address"
        },
        {
          "indexed": true,
          "internalType": "uint256",
          "name": "tokenId",
          "type": "uint256"
        }
      ],
      "name": "Approval",
      "type": "event"
    },
    {
      "anonymous": false,
      "inputs": [
        {
          "indexed": true,
          "internalType": "address",
          "name": "owner",
          "type": "address"
        },
        {
          "indexed": true,
          "internalType": "address",
          "name": "operator",
          "type": "address"
        },
        {
          "indexed": false,
          "internalType": "bool",
          "name": "approved",
          "type": "bool"
        }
      ],
      "name": "ApprovalForAll",
      "type": "event"
    },
    {
      "anonymous": false,
      "inputs": [
        {
          "indexed": false,
          "internalType": "address",
          "name": "sender",
          "type": "address"
        },
        {
          "indexed": false,
          "internalType": "uint256",
          "name": "tokenId",
          "type": "uint256"
        }
      ],
      "name": "NewEpicNFTMinted",
      "type": "event"
    },
    {
      "anonymous": false,
      "inputs": [
        {
          "indexed": true,
          "internalType": "address",
          "name": "from",
          "type": "address"
        },
        {
          "indexed": true,
          "internalType": "address",
          "name": "to",
          "type": "address"
        },
        {
          "indexed": true,
          "internalType": "uint256",
          "name": "tokenId",
          "type": "uint256"
        }
      ],
      "name": "Transfer",
      "type": "event"
    },
    {
      "inputs": [
        {
          "internalType": "address",
          "name": "to",
          "type": "address"
        },
        {
          "internalType": "uint256",
          "name": "tokenId",
          "type": "uint256"
        }
      ],
      "name": "approve",
      "outputs": [],
      "stateMutability": "nonpayable",
      "type": "function"
    },
    {
      "inputs": [
        {
          "internalType": "address",
          "name": "owner",
          "type": "address"
        }
      ],
      "name": "balanceOf",
      "outputs": [
        {
          "internalType": "uint256",
          "name": "",
          "type": "uint256"
        }
      ],
      "stateMutability": "view",
      "type": "function"
    },
    {
      "inputs": [
        {
          "internalType": "uint256",
          "name": "tokenId",
          "type": "uint256"
        }
      ],
      "name": "getApproved",
      "outputs": [
        {
          "internalType": "address",
          "name": "",
          "type": "address"
        }
      ],
      "stateMutability": "view",
      "type": "function"
    },
    {
      "inputs": [
        {
          "internalType": "address",
          "name": "owner",
          "type": "address"
        },
        {
          "internalType": "address",
          "name": "operator",
          "type": "address"
        }
      ],
      "name": "isApprovedForAll",
      "outputs": [
        {
          "internalType": "bool",
          "name": "",
          "type": "bool"
        }
      ],
      "stateMutability": "view",
      "type": "function"
    },
    {
      "inputs": [],
      "name": "makeAnEpicNFT",
      "outputs": [],
      "stateMutability": "nonpayable",
      "type": "function"
    },
    {
      "inputs": [],
      "name": "name",
      "outputs": [
        {
          "internalType": "string",
          "name": "",
          "type": "string"
        }
      ],
      "stateMutability": "view",
      "type": "function"
    },
    {
      "inputs": [
        {
          "internalType": "uint256",
          "name": "tokenId",
          "type": "uint256"
        }
      ],
      "name": "ownerOf",
      "outputs": [
        {
          "internalType": "address",
          "name": "",
          "type": "address"
        }
      ],
      "stateMutability": "view",
      "type": "function"
    },
    {
      "inputs": [
        {
          "internalType": "uint256",
          "name": "tokenId",
          "type": "uint256"
        }
      ],
      "name": "pickRandomFirstWord",
      "outputs": [
        {
          "internalType": "string",
          "name": "",
          "type": "string"
        }
      ],
      "stateMutability": "view",
      "type": "function"
    },
    {
      "inputs": [
        {
          "internalType": "uint256",
          "name": "tokenId",
          "type": "uint256"
        }
      ],
      "name": "pickRandomSecondWord",
      "outputs": [
        {
          "internalType": "string",
          "name": "",
          "type": "string"
        }
      ],
      "stateMutability": "view",
      "type": "function"
    },
    {
      "inputs": [
        {
          "internalType": "uint256",
          "name": "tokenId",
          "type": "uint256"
        }
      ],
      "name": "pickRandomThirdWord",
      "outputs": [
        {
          "internalType": "string",
          "name": "",
          "type": "string"
        }
      ],
      "stateMutability": "view",
      "type": "function"
    },
    {
      "inputs": [
        {
          "internalType": "address",
          "name": "from",
          "type": "address"
        },
        {
          "internalType": "address",
          "name": "to",
          "type": "address"
        },
        {
          "internalType": "uint256",
          "name": "tokenId",
          "type": "uint256"
        }
      ],
      "name": "safeTransferFrom",
      "outputs": [],
      "stateMutability": "nonpayable",
      "type": "function"
    },
    {
      "inputs": [
        {
          "internalType": "address",
          "name": "from",
          "type": "address"
        },
        {
          "internalType": "address",
          "name": "to",
          "type": "address"
        },
        {
          "internalType": "uint256",
          "name": "tokenId",
          "type": "uint256"
        },
        {
          "internalType": "bytes",
          "name": "data",
          "type": "bytes"
        }
      ],
      "name": "safeTransferFrom",
      "outputs": [],
      "stateMutability": "nonpayable",
      "type": "function"
    },
    {
      "inputs": [
        {
          "internalType": "address",
          "name": "operator",
          "type": "address"
        },
        {
          "internalType": "bool",
          "name": "approved",
          "type": "bool"
        }
      ],
      "name": "setApprovalForAll",
      "outputs": [],
      "stateMutability": "nonpayable",
      "type": "function"
    },
    {
      "inputs": [
        {
          "internalType": "bytes4",
          "name": "interfaceId",
          "type": "bytes4"
        }
      ],
      "name": "supportsInterface",
      "outputs": [
        {
          "internalType": "bool",
          "name": "",
          "type": "bool"
        }
      ],
      "stateMutability": "view",
      "type": "function"
    },
    {
      "inputs": [],
      "name": "symbol",
      "outputs": [
        {
          "internalType": "string",
          "name": "",
          "type": "string"
        }
      ],
      "stateMutability": "view",
      "type": "function"
    },
    {
      "inputs": [
        {
          "internalType": "uint256",
          "name": "tokenId",
          "type": "uint256"
        }
      ],
      "name": "tokenURI",
      "outputs": [
        {
          "internalType": "string",
          "name": "",
          "type": "string"
        }
      ],
      "stateMutability": "view",
      "type": "function"
    },
    {
      "inputs": [],
      "name": "totalMintCount",
      "outputs": [
        {
          "internalType": "uint256",
          "name": "",
          "type": "uint256"
        }
      ],
      "stateMutability": "view",
      "type": "function"
    },
    {
      "inputs": [
        {
          "internalType": "address",
          "name": "from",
          "type": "address"
        },
        {
          "internalType": "address",
          "name": "to",
          "type": "address"
        },
        {
          "internalType": "uint256",
          "name": "tokenId",
          "type": "uint256"
        }
      ],
      "name": "transferFrom",
      "outputs": [],
      "stateMutability": "nonpayable",
      "type": "function"
    }
  ],
  "bytecode": "0x608060405260405180610160016040528061012f8152602001620041bc61012f91396009908051906020019062000038929190620005fa565b506040518060a001604052806040518060400160405280600481526020017f63656c6c0000000000000000000000000000000000000000000000000000000081525081526020016040518060400160405280600a81526020017f617373697374616e63650000000000000000000000000000000000000000000081525081526020016040518060400160405280600481526020017f746f776e0000000000000000000000000000000000000000000000000000000081525081526020016040518060400160405280600481526020017f646174610000000000000000000000000000000000000000000000000000000081525081526020016040518060400160405280600681526020017f6472697665720000000000000000000000000000000000000000000000000000815250815250600a9060056200017b9291906200068b565b506040518060a001604052806040518060400160405280600681526020017f6d7574746572000000000000000000000000000000000000000000000000000081525081526020016040518060400160405280600381526020017f666c79000000000000000000000000000000000000000000000000000000000081525081526020016040518060400160405280600381526020017f666978000000000000000000000000000000000000000000000000000000000081525081526020016040518060400160405280600781526020017f77656c636f6d650000000000000000000000000000000000000000000000000081525081526020016040518060400160405280600781526020017f6469736375737300000000000000000000000000000000000000000000000000815250815250600b906005620002be9291906200068b565b506040518060a001604052806040518060400160405280600581526020017f7368616b7900000000000000000000000000000000000000000000000000000081525081526020016040518060400160405280600681526020017f636c616d6d79000000000000000000000000000000000000000000000000000081525081526020016040518060400160405280600581526020017f657175616c00000000000000000000000000000000000000000000000000000081525081526020016040518060400160405280600781526020017f6b6e6f77696e670000000000000000000000000000000000000000000000000081525081526020016040518060400160405280600a81526020017f7377656c746572696e6700000000000000000000000000000000000000000000815250815250600c906005620004019291906200068b565b503480156200040f57600080fd5b50604051620042eb380380620042eb833981810160405281019062000435919062000796565b6040518060400160405280600981526020017f5371756172654e465400000000000000000000000000000000000000000000008152506040518060400160405280600681526020017f53515541524500000000000000000000000000000000000000000000000000008152508160009080519060200190620004b9929190620005fa565b508060019080519060200190620004d2929190620005fa565b50505080600881905550620005276040518060400160405280601e81526020017f54686973206973206d79204e465420636f6e74726163742e20576f61682100008152506200052e60201b6200110c1760201c565b5062000913565b620005ce8160405160240162000545919062000803565b6040516020818303038152906040527f41304fac000000000000000000000000000000000000000000000000000000007bffffffffffffffffffffffffffffffffffffffffffffffffffffffff19166020820180517bffffffffffffffffffffffffffffffffffffffffffffffffffffffff8381831617835250505050620005d160201b60201c565b50565b60008151905060006a636f6e736f6c652e6c6f679050602083016000808483855afa5050505050565b828054620006089062000883565b90600052602060002090601f0160209004810192826200062c576000855562000678565b82601f106200064757805160ff191683800117855562000678565b8280016001018555821562000678579182015b82811115620006775782518255916020019190600101906200065a565b5b509050620006879190620006f2565b5090565b828054828255906000526020600020908101928215620006df579160200282015b82811115620006de578251829080519060200190620006cd929190620005fa565b5091602001919060010190620006ac565b5b509050620006ee919062000711565b5090565b5b808211156200070d576000816000905550600101620006f3565b5090565b5b808211156200073557600081816200072b919062000739565b5060010162000712565b5090565b508054620007479062000883565b6000825580601f106200075b57506200077c565b601f0160209004906000526020600020908101906200077b9190620006f2565b5b50565b6000815190506200079081620008f9565b92915050565b600060208284031215620007a957600080fd5b6000620007b9848285016200077f565b91505092915050565b6000620007cf8262000827565b620007db818562000832565b9350620007ed8185602086016200084d565b620007f881620008e8565b840191505092915050565b600060208201905081810360008301526200081f8184620007c2565b905092915050565b600081519050919050565b600082825260208201905092915050565b6000819050919050565b60005b838110156200086d57808201518184015260208101905062000850565b838111156200087d576000848401525b50505050565b600060028204905060018216806200089c57607f821691505b60208210811415620008b357620008b2620008b9565b5b50919050565b7f4e487b7100000000000000000000000000000000000000000000000000000000600052602260045260246000fd5b6000601f19601f8301169050919050565b620009048162000843565b81146200091057600080fd5b50565b61389980620009236000396000f3fe608060405234801561001057600080fd5b50600436106101165760003560e01c80637a0d2302116100a2578063b88d4fde11610071578063b88d4fde14610305578063c575757a14610321578063c87b56dd14610351578063de9d132f14610381578063e985e9c51461038b57610116565b80637a0d23021461027d57806395d89b411461029b578063a22cb465146102b9578063b187301f146102d557610116565b806323b872dd116100e957806323b872dd146101b55780632de38d68146101d157806342842e0e146102015780636352211e1461021d57806370a082311461024d57610116565b806301ffc9a71461011b57806306fdde031461014b578063081812fc14610169578063095ea7b314610199575b600080fd5b610135600480360381019061013091906124fb565b6103bb565b6040516101429190612bfb565b60405180910390f35b61015361049d565b6040516101609190612c16565b60405180910390f35b610183600480360381019061017e919061254d565b61052f565b6040516101909190612b6b565b60405180910390f35b6101b360048036038101906101ae91906124bf565b610575565b005b6101cf60048036038101906101ca91906123b9565b61068d565b005b6101eb60048036038101906101e6919061254d565b6106ed565b6040516101f89190612c16565b60405180910390f35b61021b600480360381019061021691906123b9565b61080b565b005b6102376004803603810190610232919061254d565b61082b565b6040516102449190612b6b565b60405180910390f35b61026760048036038101906102629190612354565b6108dd565b6040516102749190612e16565b60405180910390f35b610285610995565b6040516102929190612e16565b60405180910390f35b6102a361099b565b6040516102b09190612c16565b60405180910390f35b6102d360048036038101906102ce9190612483565b610a2d565b005b6102ef60048036038101906102ea919061254d565b610a43565b6040516102fc9190612c16565b60405180910390f35b61031f600480360381019061031a9190612408565b610b61565b005b61033b6004803603810190610336919061254d565b610bc3565b6040516103489190612c16565b60405180910390f35b61036b6004803603810190610366919061254d565b610ce1565b6040516103789190612c16565b60405180910390f35b610389610df4565b005b6103a560048036038101906103a0919061237d565b611078565b6040516103b29190612bfb565b60405180910390f35b60007f80ac58cd000000000000000000000000000000000000000000000000000000007bffffffffffffffffffffffffffffffffffffffffffffffffffffffff1916827bffffffffffffffffffffffffffffffffffffffffffffffffffffffff1916148061048657507f5b5e139f000000000000000000000000000000000000000000000000000000007bffffffffffffffffffffffffffffffffffffffffffffffffffffffff1916827bffffffffffffffffffffffffffffffffffffffffffffffffffffffff1916145b806104965750610495826111a5565b5b9050919050565b6060600080546104ac906130aa565b80601f01602080910402602001604051908101604052809291908181526020018280546104d8906130aa565b80156105255780601f106104fa57610100808354040283529160200191610525565b820191906000526020600020905b81548152906001019060200180831161050857829003601f168201915b5050505050905090565b600061053a8261120f565b6004600083815260200190815260200160002060009054906101000a900473ffffffffffffffffffffffffffffffffffffffff169050919050565b60006105808261082b565b90508073ffffffffffffffffffffffffffffffffffffffff168373ffffffffffffffffffffffffffffffffffffffff1614156105f1576040517f08c379a00000000000000000000000000000000000000000000000000000000081526004016105e890612dd6565b60405180910390fd5b8073ffffffffffffffffffffffffffffffffffffffff1661061061125a565b73ffffffffffffffffffffffffffffffffffffffff16148061063f575061063e8161063961125a565b611078565b5b61067e576040517f08c379a000000000000000000000000000000000000000000000000000000000815260040161067590612d76565b60405180910390fd5b6106888383611262565b505050565b61069e61069861125a565b8261131b565b6106dd576040517f08c379a00000000000000000000000000000000000000000000000000000000081526004016106d490612df6565b60405180910390fd5b6106e88383836113b0565b505050565b606060006107216106fd84611617565b60405160200161070d9190612b27565b6040516020818303038152906040526117c4565b9050600a80549050816107349190613156565b9050600a8181548110610770577f4e487b7100000000000000000000000000000000000000000000000000000000600052603260045260246000fd5b906000526020600020018054610785906130aa565b80601f01602080910402602001604051908101604052809291908181526020018280546107b1906130aa565b80156107fe5780601f106107d3576101008083540402835291602001916107fe565b820191906000526020600020905b8154815290600101906020018083116107e157829003601f168201915b5050505050915050919050565b61082683838360405180602001604052806000815250610b61565b505050565b6000806002600084815260200190815260200160002060009054906101000a900473ffffffffffffffffffffffffffffffffffffffff169050600073ffffffffffffffffffffffffffffffffffffffff168173ffffffffffffffffffffffffffffffffffffffff1614156108d4576040517f08c379a00000000000000000000000000000000000000000000000000000000081526004016108cb90612db6565b60405180910390fd5b80915050919050565b60008073ffffffffffffffffffffffffffffffffffffffff168273ffffffffffffffffffffffffffffffffffffffff16141561094e576040517f08c379a000000000000000000000000000000000000000000000000000000000815260040161094590612d36565b60405180910390fd5b600360008373ffffffffffffffffffffffffffffffffffffffff1673ffffffffffffffffffffffffffffffffffffffff168152602001908152602001600020549050919050565b60085481565b6060600180546109aa906130aa565b80601f01602080910402602001604051908101604052809291908181526020018280546109d6906130aa565b8015610a235780601f106109f857610100808354040283529160200191610a23565b820191906000526020600020905b815481529060010190602001808311610a0657829003601f168201915b5050505050905090565b610a3f610a3861125a565b83836117f7565b5050565b60606000610a77610a5384611617565b604051602001610a639190612ac0565b6040516020818303038152906040526117c4565b9050600b8054905081610a8a9190613156565b9050600b8181548110610ac6577f4e487b7100000000000000000000000000000000000000000000000000000000600052603260045260246000fd5b906000526020600020018054610adb906130aa565b80601f0160208091040260200160405190810160405280929190818152602001828054610b07906130aa565b8015610b545780601f10610b2957610100808354040283529160200191610b54565b820191906000526020600020905b815481529060010190602001808311610b3757829003601f168201915b5050505050915050919050565b610b72610b6c61125a565b8361131b565b610bb1576040517f08c379a0000000000000000000000000000000000000000000000000000000008152600401610ba890612df6565b60405180910390fd5b610bbd84848484611964565b50505050565b60606000610bf7610bd384611617565b604051602001610be39190612a9e565b6040516020818303038152906040526117c4565b9050600c8054905081610c0a9190613156565b9050600c8181548110610c46577f4e487b7100000000000000000000000000000000000000000000000000000000600052603260045260246000fd5b906000526020600020018054610c5b906130aa565b80601f0160208091040260200160405190810160405280929190818152602001828054610c87906130aa565b8015610cd45780601f10610ca957610100808354040283529160200191610cd4565b820191906000526020600020905b815481529060010190602001808311610cb757829003601f168201915b5050505050915050919050565b6060610cec8261120f565b6000600660008481526020019081526020016000208054610d0c906130aa565b80601f0160208091040260200160405190810160405280929190818152602001828054610d38906130aa565b8015610d855780601f10610d5a57610100808354040283529160200191610d85565b820191906000526020600020905b815481529060010190602001808311610d6857829003601f168201915b505050505090506000610d966119c0565b9050600081511415610dac578192505050610def565b600082511115610de1578082604051602001610dc99291906129de565b60405160208183030381529060405292505050610def565b610dea846119d7565b925050505b919050565b6000610e006007611a3f565b9050600854811115610e47576040517f08c379a0000000000000000000000000000000000000000000000000000000008152600401610e3e90612c76565b60405180910390fd5b6000610e52826106ed565b90506000610e5f83610a43565b90506000610e6c84610bc3565b90506000838383604051602001610e8593929190612a02565b604051602081830303815290604052905060006009858585604051602001610eb09493929190612a33565b60405160208183030381529060405290506000610ef583610ed084611a4d565b604051602001610ee1929190612ae2565b604051602081830303815290604052611a4d565b9050600081604051602001610f0a9190612b49565b6040516020818303038152906040529050610f596040518060400160405280601581526020017f0a2d2d2d2d2d2d2d2d2d2d2d2d2d2d2d2d2d2d2d2d000000000000000000000081525061110c565b610f8181604051602001610f6d9190612a7c565b60405160208183030381529060405261110c565b610fbf6040518060400160405280601581526020017f2d2d2d2d2d2d2d2d2d2d2d2d2d2d2d2d2d2d2d2d0a000000000000000000000081525061110c565b610fc93389611c0b565b611008886040518060400160405280600481526020017f626c616800000000000000000000000000000000000000000000000000000000815250611c29565b6110126007611c9d565b6110356040518060600160405280602581526020016137ff602591398933611cb3565b7febb98688741ffa4c7589bf325de30cf7becb63de567842e1ccdb6cb949fdc82c3389604051611066929190612bd2565b60405180910390a15050505050505050565b6000600560008473ffffffffffffffffffffffffffffffffffffffff1673ffffffffffffffffffffffffffffffffffffffff16815260200190815260200160002060008373ffffffffffffffffffffffffffffffffffffffff1673ffffffffffffffffffffffffffffffffffffffff16815260200190815260200160002060009054906101000a900460ff16905092915050565b6111a2816040516024016111209190612c16565b6040516020818303038152906040527f41304fac000000000000000000000000000000000000000000000000000000007bffffffffffffffffffffffffffffffffffffffffffffffffffffffff19166020820180517bffffffffffffffffffffffffffffffffffffffffffffffffffffffff8381831617835250505050611d52565b50565b60007f01ffc9a7000000000000000000000000000000000000000000000000000000007bffffffffffffffffffffffffffffffffffffffffffffffffffffffff1916827bffffffffffffffffffffffffffffffffffffffffffffffffffffffff1916149050919050565b61121881611d7b565b611257576040517f08c379a000000000000000000000000000000000000000000000000000000000815260040161124e90612db6565b60405180910390fd5b50565b600033905090565b816004600083815260200190815260200160002060006101000a81548173ffffffffffffffffffffffffffffffffffffffff021916908373ffffffffffffffffffffffffffffffffffffffff160217905550808273ffffffffffffffffffffffffffffffffffffffff166112d58361082b565b73ffffffffffffffffffffffffffffffffffffffff167f8c5be1e5ebec7d5bd14f71427d1e84f3dd0314c0f7b2291e5b200ac8c7c3b92560405160405180910390a45050565b6000806113278361082b565b90508073ffffffffffffffffffffffffffffffffffffffff168473ffffffffffffffffffffffffffffffffffffffff16148061136957506113688185611078565b5b806113a757508373ffffffffffffffffffffffffffffffffffffffff1661138f8461052f565b73ffffffffffffffffffffffffffffffffffffffff16145b91505092915050565b8273ffffffffffffffffffffffffffffffffffffffff166113d08261082b565b73ffffffffffffffffffffffffffffffffffffffff1614611426576040517f08c379a000000000000000000000000000000000000000000000000000000000815260040161141d90612cb6565b60405180910390fd5b600073ffffffffffffffffffffffffffffffffffffffff168273ffffffffffffffffffffffffffffffffffffffff161415611496576040517f08c379a000000000000000000000000000000000000000000000000000000000815260040161148d90612cf6565b60405180910390fd5b6114a1838383611de7565b6114ac600082611262565b6001600360008573ffffffffffffffffffffffffffffffffffffffff1673ffffffffffffffffffffffffffffffffffffffff16815260200190815260200160002060008282546114fc9190612fc0565b925050819055506001600360008473ffffffffffffffffffffffffffffffffffffffff1673ffffffffffffffffffffffffffffffffffffffff16815260200190815260200160002060008282546115539190612edf565b92505081905550816002600083815260200190815260200160002060006101000a81548173ffffffffffffffffffffffffffffffffffffffff021916908373ffffffffffffffffffffffffffffffffffffffff160217905550808273ffffffffffffffffffffffffffffffffffffffff168473ffffffffffffffffffffffffffffffffffffffff167fddf252ad1be2c89b69c2b068fc378daa952ba7f163c4a11628f55a4df523b3ef60405160405180910390a4611612838383611dec565b505050565b6060600082141561165f576040518060400160405280600181526020017f300000000000000000000000000000000000000000000000000000000000000081525090506117bf565b600082905060005b6000821461169157808061167a9061310d565b915050600a8261168a9190612f35565b9150611667565b60008167ffffffffffffffff8111156116d3577f4e487b7100000000000000000000000000000000000000000000000000000000600052604160045260246000fd5b6040519080825280601f01601f1916602001820160405280156117055781602001600182028036833780820191505090505b5090505b600085146117b85760018261171e9190612fc0565b9150600a8561172d9190613156565b60306117399190612edf565b60f81b818381518110611775577f4e487b7100000000000000000000000000000000000000000000000000000000600052603260045260246000fd5b60200101907effffffffffffffffffffffffffffffffffffffffffffffffffffffffffffff1916908160001a905350600a856117b19190612f35565b9450611709565b8093505050505b919050565b6000816040516020016117d791906129c7565b6040516020818303038152906040528051906020012060001c9050919050565b8173ffffffffffffffffffffffffffffffffffffffff168373ffffffffffffffffffffffffffffffffffffffff161415611866576040517f08c379a000000000000000000000000000000000000000000000000000000000815260040161185d90612d16565b60405180910390fd5b80600560008573ffffffffffffffffffffffffffffffffffffffff1673ffffffffffffffffffffffffffffffffffffffff16815260200190815260200160002060008473ffffffffffffffffffffffffffffffffffffffff1673ffffffffffffffffffffffffffffffffffffffff16815260200190815260200160002060006101000a81548160ff0219169083151502179055508173ffffffffffffffffffffffffffffffffffffffff168373ffffffffffffffffffffffffffffffffffffffff167f17307eab39ab6107e8899845ad3d59bd9653f200f220920489ca2b5937696c31836040516119579190612bfb565b60405180910390a3505050565b61196f8484846113b0565b61197b84848484611df1565b6119ba576040517f08c379a00000000000000000000000000000000000000000000000000000000081526004016119b190612c96565b60405180910390fd5b50505050565b606060405180602001604052806000815250905090565b60606119e28261120f565b60006119ec6119c0565b90506000815111611a0c5760405180602001604052806000815250611a37565b80611a1684611617565b604051602001611a279291906129de565b6040516020818303038152906040525b915050919050565b600081600001549050919050565b60606000825190506000811415611a765760405180602001604052806000815250915050611c06565b60006003600283611a879190612edf565b611a919190612f35565b6004611a9d9190612f66565b90506000602082611aae9190612edf565b67ffffffffffffffff811115611aed577f4e487b7100000000000000000000000000000000000000000000000000000000600052604160045260246000fd5b6040519080825280601f01601f191660200182016040528015611b1f5781602001600182028036833780820191505090505b5090506000604051806060016040528060408152602001613824604091399050600181016020830160005b86811015611bc35760038101905062ffffff818a015116603f8160121c168401518060081b905060ff603f83600c1c1686015116810190508060081b905060ff603f8360061c1686015116810190508060081b905060ff603f831686015116810190508060e01b90508084526004840193505050611b4a565b506003860660018114611bdd5760028114611bed57611bf8565b613d3d60f01b6002830352611bf8565b603d60f81b60018303525b508484525050819450505050505b919050565b611c25828260405180602001604052806000815250611f88565b5050565b611c3282611d7b565b611c71576040517f08c379a0000000000000000000000000000000000000000000000000000000008152600401611c6890612d56565b60405180910390fd5b80600660008481526020019081526020016000209080519060200190611c989291906121e0565b505050565b6001816000016000828254019250508190555050565b611d4d838383604051602401611ccb93929190612c38565b6040516020818303038152906040527fe3849f79000000000000000000000000000000000000000000000000000000007bffffffffffffffffffffffffffffffffffffffffffffffffffffffff19166020820180517bffffffffffffffffffffffffffffffffffffffffffffffffffffffff8381831617835250505050611d52565b505050565b60008151905060006a636f6e736f6c652e6c6f679050602083016000808483855afa5050505050565b60008073ffffffffffffffffffffffffffffffffffffffff166002600084815260200190815260200160002060009054906101000a900473ffffffffffffffffffffffffffffffffffffffff1673ffffffffffffffffffffffffffffffffffffffff1614159050919050565b505050565b505050565b6000611e128473ffffffffffffffffffffffffffffffffffffffff16611fe3565b15611f7b578373ffffffffffffffffffffffffffffffffffffffff1663150b7a02611e3b61125a565b8786866040518563ffffffff1660e01b8152600401611e5d9493929190612b86565b602060405180830381600087803b158015611e7757600080fd5b505af1925050508015611ea857506040513d601f19601f82011682018060405250810190611ea59190612524565b60015b611f2b573d8060008114611ed8576040519150601f19603f3d011682016040523d82523d6000602084013e611edd565b606091505b50600081511415611f23576040517f08c379a0000000000000000000000000000000000000000000000000000000008152600401611f1a90612c96565b60405180910390fd5b805181602001fd5b63150b7a0260e01b7bffffffffffffffffffffffffffffffffffffffffffffffffffffffff1916817bffffffffffffffffffffffffffffffffffffffffffffffffffffffff191614915050611f80565b600190505b949350505050565b611f928383612006565b611f9f6000848484611df1565b611fde576040517f08c379a0000000000000000000000000000000000000000000000000000000008152600401611fd590612c96565b60405180910390fd5b505050565b6000808273ffffffffffffffffffffffffffffffffffffffff163b119050919050565b600073ffffffffffffffffffffffffffffffffffffffff168273ffffffffffffffffffffffffffffffffffffffff161415612076576040517f08c379a000000000000000000000000000000000000000000000000000000000815260040161206d90612d96565b60405180910390fd5b61207f81611d7b565b156120bf576040517f08c379a00000000000000000000000000000000000000000000000000000000081526004016120b690612cd6565b60405180910390fd5b6120cb60008383611de7565b6001600360008473ffffffffffffffffffffffffffffffffffffffff1673ffffffffffffffffffffffffffffffffffffffff168152602001908152602001600020600082825461211b9190612edf565b92505081905550816002600083815260200190815260200160002060006101000a81548173ffffffffffffffffffffffffffffffffffffffff021916908373ffffffffffffffffffffffffffffffffffffffff160217905550808273ffffffffffffffffffffffffffffffffffffffff16600073ffffffffffffffffffffffffffffffffffffffff167fddf252ad1be2c89b69c2b068fc378daa952ba7f163c4a11628f55a4df523b3ef60405160405180910390a46121dc60008383611dec565b5050565b8280546121ec906130aa565b90600052602060002090601f01602090048101928261220e5760008555612255565b82601f1061222757805160ff1916838001178555612255565b82800160010185558215612255579182015b82811115612254578251825591602001919060010190612239565b5b5090506122629190612266565b5090565b5b8082111561227f576000816000905550600101612267565b5090565b600061229661229184612e56565b612e31565b9050828152602081018484840111156122ae57600080fd5b6122b9848285613068565b509392505050565b6000813590506122d0816137a2565b92915050565b6000813590506122e5816137b9565b92915050565b6000813590506122fa816137d0565b92915050565b60008151905061230f816137d0565b92915050565b600082601f83011261232657600080fd5b8135612336848260208601612283565b91505092915050565b60008135905061234e816137e7565b92915050565b60006020828403121561236657600080fd5b6000612374848285016122c1565b91505092915050565b6000806040838503121561239057600080fd5b600061239e858286016122c1565b92505060206123af858286016122c1565b9150509250929050565b6000806000606084860312156123ce57600080fd5b60006123dc868287016122c1565b93505060206123ed868287016122c1565b92505060406123fe8682870161233f565b9150509250925092565b6000806000806080858703121561241e57600080fd5b600061242c878288016122c1565b945050602061243d878288016122c1565b935050604061244e8782880161233f565b925050606085013567ffffffffffffffff81111561246b57600080fd5b61247787828801612315565b91505092959194509250565b6000806040838503121561249657600080fd5b60006124a4858286016122c1565b92505060206124b5858286016122d6565b9150509250929050565b600080604083850312156124d257600080fd5b60006124e0858286016122c1565b92505060206124f18582860161233f565b9150509250929050565b60006020828403121561250d57600080fd5b600061251b848285016122eb565b91505092915050565b60006020828403121561253657600080fd5b600061254484828501612300565b91505092915050565b60006020828403121561255f57600080fd5b600061256d8482850161233f565b91505092915050565b61257f81612ff4565b82525050565b61258e81613006565b82525050565b600061259f82612e9c565b6125a98185612eb2565b93506125b9818560208601613077565b6125c281613243565b840191505092915050565b60006125d882612ea7565b6125e28185612ec3565b93506125f2818560208601613077565b6125fb81613243565b840191505092915050565b600061261182612ea7565b61261b8185612ed4565b935061262b818560208601613077565b80840191505092915050565b60008154612644816130aa565b61264e8186612ed4565b94506001821660008114612669576001811461267a576126ad565b60ff198316865281860193506126ad565b61268385612e87565b60005b838110156126a557815481890152600182019150602081019050612686565b838801955050505b50505092915050565b60006126c3602583612ed4565b91506126ce82613254565b602582019050919050565b60006126e6602083612ec3565b91506126f1826132a3565b602082019050919050565b6000612709603283612ec3565b9150612714826132cc565b604082019050919050565b600061272c602583612ec3565b91506127378261331b565b604082019050919050565b600061274f601c83612ec3565b915061275a8261336a565b602082019050919050565b6000612772600a83612ed4565b915061277d82613393565b600a82019050919050565b6000612795602483612ec3565b91506127a0826133bc565b604082019050919050565b60006127b8601983612ec3565b91506127c38261340b565b602082019050919050565b60006127db606383612ed4565b91506127e682613434565b606382019050919050565b60006127fe600b83612ed4565b9150612809826134cf565b600b82019050919050565b6000612821600d83612ed4565b915061282c826134f8565b600d82019050919050565b6000612844602983612ec3565b915061284f82613521565b604082019050919050565b6000612867602e83612ec3565b915061287282613570565b604082019050919050565b600061288a600283612ed4565b9150612895826135bf565b600282019050919050565b60006128ad603e83612ec3565b91506128b8826135e8565b604082019050919050565b60006128d0602083612ec3565b91506128db82613637565b602082019050919050565b60006128f3600a83612ed4565b91506128fe82613660565b600a82019050919050565b6000612916601883612ec3565b915061292182613689565b602082019050919050565b6000612939602183612ec3565b9150612944826136b2565b604082019050919050565b600061295c600a83612ed4565b915061296782613701565b600a82019050919050565b600061297f601d83612ed4565b915061298a8261372a565b601d82019050919050565b60006129a2602e83612ec3565b91506129ad82613753565b604082019050919050565b6129c18161305e565b82525050565b60006129d38284612606565b915081905092915050565b60006129ea8285612606565b91506129f68284612606565b91508190509392505050565b6000612a0e8286612606565b9150612a1a8285612606565b9150612a268284612606565b9150819050949350505050565b6000612a3f8287612637565b9150612a4b8286612606565b9150612a578285612606565b9150612a638284612606565b9150612a6e82612814565b915081905095945050505050565b6000612a87826126b6565b9150612a938284612606565b915081905092915050565b6000612aa982612765565b9150612ab58284612606565b915081905092915050565b6000612acb826127f1565b9150612ad78284612606565b915081905092915050565b6000612aed826128e6565b9150612af98285612606565b9150612b04826127ce565b9150612b108284612606565b9150612b1b8261287d565b91508190509392505050565b6000612b328261294f565b9150612b3e8284612606565b915081905092915050565b6000612b5482612972565b9150612b608284612606565b915081905092915050565b6000602082019050612b806000830184612576565b92915050565b6000608082019050612b9b6000830187612576565b612ba86020830186612576565b612bb560408301856129b8565b8181036060830152612bc78184612594565b905095945050505050565b6000604082019050612be76000830185612576565b612bf460208301846129b8565b9392505050565b6000602082019050612c106000830184612585565b92915050565b60006020820190508181036000830152612c3081846125cd565b905092915050565b60006060820190508181036000830152612c5281866125cd565b9050612c6160208301856129b8565b612c6e6040830184612576565b949350505050565b60006020820190508181036000830152612c8f816126d9565b9050919050565b60006020820190508181036000830152612caf816126fc565b9050919050565b60006020820190508181036000830152612ccf8161271f565b9050919050565b60006020820190508181036000830152612cef81612742565b9050919050565b60006020820190508181036000830152612d0f81612788565b9050919050565b60006020820190508181036000830152612d2f816127ab565b9050919050565b60006020820190508181036000830152612d4f81612837565b9050919050565b60006020820190508181036000830152612d6f8161285a565b9050919050565b60006020820190508181036000830152612d8f816128a0565b9050919050565b60006020820190508181036000830152612daf816128c3565b9050919050565b60006020820190508181036000830152612dcf81612909565b9050919050565b60006020820190508181036000830152612def8161292c565b9050919050565b60006020820190508181036000830152612e0f81612995565b9050919050565b6000602082019050612e2b60008301846129b8565b92915050565b6000612e3b612e4c565b9050612e4782826130dc565b919050565b6000604051905090565b600067ffffffffffffffff821115612e7157612e70613214565b5b612e7a82613243565b9050602081019050919050565b60008190508160005260206000209050919050565b600081519050919050565b600081519050919050565b600082825260208201905092915050565b600082825260208201905092915050565b600081905092915050565b6000612eea8261305e565b9150612ef58361305e565b9250827fffffffffffffffffffffffffffffffffffffffffffffffffffffffffffffffff03821115612f2a57612f29613187565b5b828201905092915050565b6000612f408261305e565b9150612f4b8361305e565b925082612f5b57612f5a6131b6565b5b828204905092915050565b6000612f718261305e565b9150612f7c8361305e565b9250817fffffffffffffffffffffffffffffffffffffffffffffffffffffffffffffffff0483118215151615612fb557612fb4613187565b5b828202905092915050565b6000612fcb8261305e565b9150612fd68361305e565b925082821015612fe957612fe8613187565b5b828203905092915050565b6000612fff8261303e565b9050919050565b60008115159050919050565b60007fffffffff0000000000000000000000000000000000000000000000000000000082169050919050565b600073ffffffffffffffffffffffffffffffffffffffff82169050919050565b6000819050919050565b82818337600083830152505050565b60005b8381101561309557808201518184015260208101905061307a565b838111156130a4576000848401525b50505050565b600060028204905060018216806130c257607f821691505b602082108114156130d6576130d56131e5565b5b50919050565b6130e582613243565b810181811067ffffffffffffffff8211171561310457613103613214565b5b80604052505050565b60006131188261305e565b91507fffffffffffffffffffffffffffffffffffffffffffffffffffffffffffffffff82141561314b5761314a613187565b5b600182019050919050565b60006131618261305e565b915061316c8361305e565b92508261317c5761317b6131b6565b5b828206905092915050565b7f4e487b7100000000000000000000000000000000000000000000000000000000600052601160045260246000fd5b7f4e487b7100000000000000000000000000000000000000000000000000000000600052601260045260246000fd5b7f4e487b7100000000000000000000000000000000000000000000000000000000600052602260045260246000fd5b7f4e487b7100000000000000000000000000000000000000000000000000000000600052604160045260246000fd5b6000601f19601f8301169050919050565b7f68747470733a2f2f6e6674707265766965772e30786465762e636f6465732f3f60008201527f636f64653d000000000000000000000000000000000000000000000000000000602082015250565b7f416c6c2074686520746f6b656e732068617665206265656e206d696e7465642e600082015250565b7f4552433732313a207472616e7366657220746f206e6f6e20455243373231526560008201527f63656976657220696d706c656d656e7465720000000000000000000000000000602082015250565b7f4552433732313a207472616e736665722066726f6d20696e636f72726563742060008201527f6f776e6572000000000000000000000000000000000000000000000000000000602082015250565b7f4552433732313a20746f6b656e20616c7265616479206d696e74656400000000600082015250565b7f54484952445f574f524400000000000000000000000000000000000000000000600082015250565b7f4552433732313a207472616e7366657220746f20746865207a65726f2061646460008201527f7265737300000000000000000000000000000000000000000000000000000000602082015250565b7f4552433732313a20617070726f766520746f2063616c6c657200000000000000600082015250565b7f222c20226465736372697074696f6e223a20224120686967686c79206163636c60008201527f61696d656420636f6c6c656374696f6e206f6620737175617265732e222c202260208201527f696d616765223a2022646174613a696d6167652f7376672b786d6c3b6261736560408201527f36342c0000000000000000000000000000000000000000000000000000000000606082015250565b7f5345434f4e445f574f5244000000000000000000000000000000000000000000600082015250565b7f3c2f746578743e3c2f7376673e00000000000000000000000000000000000000600082015250565b7f4552433732313a2061646472657373207a65726f206973206e6f74206120766160008201527f6c6964206f776e65720000000000000000000000000000000000000000000000602082015250565b7f45524337323155524953746f726167653a2055524920736574206f66206e6f6e60008201527f6578697374656e7420746f6b656e000000000000000000000000000000000000602082015250565b7f227d000000000000000000000000000000000000000000000000000000000000600082015250565b7f4552433732313a20617070726f76652063616c6c6572206973206e6f7420746f60008201527f6b656e206f776e6572206e6f7220617070726f76656420666f7220616c6c0000602082015250565b7f4552433732313a206d696e7420746f20746865207a65726f2061646472657373600082015250565b7f7b226e616d65223a202200000000000000000000000000000000000000000000600082015250565b7f4552433732313a20696e76616c696420746f6b656e2049440000000000000000600082015250565b7f4552433732313a20617070726f76616c20746f2063757272656e74206f776e6560008201527f7200000000000000000000000000000000000000000000000000000000000000602082015250565b7f46495253545f574f524400000000000000000000000000000000000000000000600082015250565b7f646174613a6170706c69636174696f6e2f6a736f6e3b6261736536342c000000600082015250565b7f4552433732313a2063616c6c6572206973206e6f7420746f6b656e206f776e6560008201527f72206e6f7220617070726f766564000000000000000000000000000000000000602082015250565b6137ab81612ff4565b81146137b657600080fd5b50565b6137c281613006565b81146137cd57600080fd5b50565b6137d981613012565b81146137e457600080fd5b50565b6137f08161305e565b81146137fb57600080fd5b5056fe416e204e465420772f20494420257320686173206265656e206d696e74656420746f2025734142434445464748494a4b4c4d4e4f505152535455565758595a6162636465666768696a6b6c6d6e6f707172737475767778797a303132333435363738392b2fa26469706673582212207a6026c93fbfc9f1975c29aaa0d3d71a817a680d6e0b1ee2f97ca2053c7295c964736f6c634300080100333c73766720786d6c6e733d27687474703a2f2f7777772e77332e6f72672f323030302f73766727207072657365727665417370656374526174696f3d27784d696e594d696e206d656574272076696577426f783d273020302033353020333530273e3c7374796c653e2e62617365207b2066696c6c3a2077686974653b20666f6e742d66616d696c793a2073657269663b20666f6e742d73697a653a20323470783b207d3c2f7374796c653e3c726563742077696474683d273130302527206865696768743d2731303025272066696c6c3d27626c61636b27202f3e3c7465787420783d273530252720793d273530252720636c6173733d27626173652720646f6d696e616e742d626173656c696e653d276d6964646c652720746578742d616e63686f723d276d6964646c65273e",
  "linkReferences": {},
  "deployedLinkReferences": {}
}